{
  "contractName": "ERC721Metadata",
  "abi": [
    {
      "inputs": [
        {
          "internalType": "string",
          "name": "named",
          "type": "string"
        },
        {
          "internalType": "string",
          "name": "symbolified",
          "type": "string"
        }
      ],
      "stateMutability": "nonpayable",
      "type": "constructor"
    },
    {
      "inputs": [
        {
          "internalType": "bytes4",
          "name": "interfaceID",
          "type": "bytes4"
        }
      ],
      "name": "supportsInterface",
      "outputs": [
        {
          "internalType": "bool",
          "name": "",
          "type": "bool"
        }
      ],
      "stateMutability": "view",
      "type": "function"
    },
    {
      "inputs": [],
      "name": "name",
      "outputs": [
        {
          "internalType": "string",
          "name": "",
          "type": "string"
        }
      ],
      "stateMutability": "view",
      "type": "function"
    },
    {
      "inputs": [],
      "name": "symbol",
      "outputs": [
        {
          "internalType": "string",
          "name": "",
          "type": "string"
        }
      ],
      "stateMutability": "view",
      "type": "function"
    }
  ],
  "bytecode": "0x60806040523480156200001157600080fd5b5060405162000c4438038062000c44833981810160405281019062000037919062000389565b620000717f01ffc9a7a5cef8baa21ed3c5c0d7e23accb804b619e9333b597f47a0d84076e2620000f9640100000000026401000000009004565b620000cd7f13b182f4c0e5b2efbac0efe6cf6d756c8b89f4b79c5707a043ed9ea740574ee97f7feaf19471f34a12a7eaf32d5f3090aa2260ea8624dc8a138e74e0bf0f62307618620000f9640100000000026401000000009004565b8160019081620000de91906200065f565b508060029081620000f091906200065f565b505050620007c9565b63ffffffff7c010000000000000000000000000000000000000000000000000000000002817bffffffffffffffffffffffffffffffffffffffffffffffffffffffff19160362000180576040517f08c379a00000000000000000000000000000000000000000000000000000000081526004016200017790620007a7565b60405180910390fd5b6001600080837bffffffffffffffffffffffffffffffffffffffffffffffffffffffff19167bffffffffffffffffffffffffffffffffffffffffffffffffffffffff1916815260200190815260200160002060006101000a81548160ff02191690831515021790555050565b6000604051905090565b600080fd5b600080fd5b600080fd5b600080fd5b6000601f19601f8301169050919050565b7f4e487b7100000000000000000000000000000000000000000000000000000000600052604160045260246000fd5b62000255826200020a565b810181811067ffffffffffffffff821117156200027757620002766200021b565b5b80604052505050565b60006200028c620001ec565b90506200029a82826200024a565b919050565b600067ffffffffffffffff821115620002bd57620002bc6200021b565b5b620002c8826200020a565b9050602081019050919050565b60005b83811015620002f5578082015181840152602081019050620002d8565b8381111562000305576000848401525b50505050565b6000620003226200031c846200029f565b62000280565b90508281526020810184848401111562000341576200034062000205565b5b6200034e848285620002d5565b509392505050565b600082601f8301126200036e576200036d62000200565b5b8151620003808482602086016200030b565b91505092915050565b60008060408385031215620003a357620003a2620001f6565b5b600083015167ffffffffffffffff811115620003c457620003c3620001fb565b5b620003d28582860162000356565b925050602083015167ffffffffffffffff811115620003f657620003f5620001fb565b5b620004048582860162000356565b9150509250929050565b600081519050919050565b7f4e487b7100000000000000000000000000000000000000000000000000000000600052602260045260246000fd5b600060028204905060018216806200046157607f821691505b60208210810362000477576200047662000419565b5b50919050565b60008190508160005260206000209050919050565b60006020601f8301049050919050565b60008160020a8302905092915050565b600060088302620004e47fffffffffffffffffffffffffffffffffffffffffffffffffffffffffffffffff82620004a2565b620004f08683620004a2565b95508019841693508086168417925050509392505050565b6000819050919050565b6000819050919050565b60006200053d62000537620005318462000508565b62000512565b62000508565b9050919050565b6000819050919050565b62000559836200051c565b62000571620005688262000544565b848454620004b2565b825550505050565b600090565b6200058862000579565b620005958184846200054e565b505050565b5b81811015620005bd57620005b16000826200057e565b6001810190506200059b565b5050565b601f8211156200060c57620005d6816200047d565b620005e18462000492565b81016020851015620005f1578190505b62000609620006008562000492565b8301826200059a565b50505b505050565b60008160020a8304905092915050565b6000620006346000198460080262000611565b1980831691505092915050565b60006200064f838362000621565b9150826002028217905092915050565b6200066a826200040e565b67ffffffffffffffff8111156200068657620006856200021b565b5b62000692825462000448565b6200069f828285620005c1565b600060209050601f831160018114620006d75760008415620006c2578287015190505b620006ce858262000641565b8655506200073e565b601f198416620006e7866200047d565b60005b828110156200071157848901518255600182019150602085019450602081019050620006ea565b868310156200073157848901516200072d601f89168262000621565b8355505b6001600288020188555050505b505050505050565b600082825260208201905092915050565b7f496e76616c696420496e74657266616365207265717565737400000000000000600082015250565b60006200078f60198362000746565b91506200079c8262000757565b602082019050919050565b60006020820190508181036000830152620007c28162000780565b9050919050565b61046b80620007d96000396000f3fe608060405234801561001057600080fd5b506004361061005e576000357c01000000000000000000000000000000000000000000000000000000009004806301ffc9a71461006357806306fdde031461009357806395d89b41146100b1575b600080fd5b61007d600480360381019061007891906102b7565b6100cf565b60405161008a91906102ff565b60405180910390f35b61009b610136565b6040516100a891906103b3565b60405180910390f35b6100b96101c8565b6040516100c691906103b3565b60405180910390f35b6000806000837bffffffffffffffffffffffffffffffffffffffffffffffffffffffff19167bffffffffffffffffffffffffffffffffffffffffffffffffffffffff1916815260200190815260200160002060009054906101000a900460ff169050919050565b60606001805461014590610404565b80601f016020809104026020016040519081016040528092919081815260200182805461017190610404565b80156101be5780601f10610193576101008083540402835291602001916101be565b820191906000526020600020905b8154815290600101906020018083116101a157829003601f168201915b5050505050905090565b6060600280546101d790610404565b80601f016020809104026020016040519081016040528092919081815260200182805461020390610404565b80156102505780601f1061022557610100808354040283529160200191610250565b820191906000526020600020905b81548152906001019060200180831161023357829003601f168201915b5050505050905090565b600080fd5b60007fffffffff0000000000000000000000000000000000000000000000000000000082169050919050565b6102948161025f565b811461029f57600080fd5b50565b6000813590506102b18161028b565b92915050565b6000602082840312156102cd576102cc61025a565b5b60006102db848285016102a2565b91505092915050565b60008115159050919050565b6102f9816102e4565b82525050565b600060208201905061031460008301846102f0565b92915050565b600081519050919050565b600082825260208201905092915050565b60005b83811015610354578082015181840152602081019050610339565b83811115610363576000848401525b50505050565b6000601f19601f8301169050919050565b60006103858261031a565b61038f8185610325565b935061039f818560208601610336565b6103a881610369565b840191505092915050565b600060208201905081810360008301526103cd818461037a565b905092915050565b7f4e487b7100000000000000000000000000000000000000000000000000000000600052602260045260246000fd5b6000600282049050600182168061041c57607f821691505b60208210810361042f5761042e6103d5565b5b5091905056fea264697066735822122062300112d48e3a7d0661b6e835ebc507ec4e52a1688eb4627702a9acaebff05c64736f6c634300080f0033",
  "immutableReferences": {},
  "source": "// SPDX-License-Identifier: MIT\npragma solidity ^0.8.0;\n\nimport './interfaces/IERC721Metadata.sol';\nimport './ERC165.sol';\n\ncontract ERC721Metadata is IERC721Metadata,ERC165{\n    string private _name;\n    string private _symbol;\n    constructor(string memory named,string memory symbolified){\n        _registerInterface(\n            bytes4(\n                keccak256(\"name(bytes4)\") ^\n                    keccak256(\"symbol(bytes4)\") \n            )\n        );\n        _name = named;\n        _symbol = symbolified;\n    }\n\n    function name() external override view returns (string memory){\n        return _name;\n    }\n    function symbol() external override view returns (string memory){\n        return _symbol;\n    }\n}",
  "sourcePath": "/home/aviroxi/workspace/nft/src/contracts/ERC721Metadata.sol",
  "compiler": {
    "name": "solc",
    "version": "0.8.15+commit.e14f2714.Emscripten.clang"
  },
  "schemaVersion": "3.4.8",
  "updatedAt": "2022-07-18T17:38:03.801Z",
  "devdoc": {
    "kind": "dev",
    "methods": {
      "supportsInterface(bytes4)": {
        "details": "Interface identification is specified in ERC-165. This function  uses less than 30,000 gas.",
        "params": {
          "interfaceID": "The interface identifier, as specified in ERC-165"
        },
        "returns": {
          "_0": "`true` if the contract implements `interfaceID` and  `interfaceID` is not 0xffffffff, `false` otherwise"
        }
      }
    },
    "version": 1
  },
  "userdoc": {
    "kind": "user",
    "methods": {
      "name()": {
        "notice": "A descriptive name for a collection of NFTs in this contract"
      },
      "supportsInterface(bytes4)": {
        "notice": "Query if a contract implements an interface"
      },
      "symbol()": {
        "notice": "An abbreviated name for NFTs in this contract"
      }
    },
    "version": 1
  }
}