{
  "contractName": "Nft",
  "abi": [
    {
      "inputs": [],
      "stateMutability": "nonpayable",
      "type": "constructor"
    },
    {
      "inputs": [],
      "name": "name",
      "outputs": [
        {
          "internalType": "string",
          "name": "",
          "type": "string"
        }
      ],
      "stateMutability": "view",
      "type": "function",
      "constant": true
    },
    {
      "inputs": [],
      "name": "symbol",
      "outputs": [
        {
          "internalType": "string",
          "name": "",
          "type": "string"
        }
      ],
      "stateMutability": "view",
      "type": "function",
      "constant": true
    }
  ],
  "bytecode": "0x608060405234801561001057600080fd5b506040518060400160405280600f81526020017f4e465420736d61727420636172647300000000000000000000000000000000008152506000908161005591906102f6565b506040518060400160405280600481526020017f4e46547a000000000000000000000000000000000000000000000000000000008152506001908161009a91906102f6565b506103c8565b600081519050919050565b7f4e487b7100000000000000000000000000000000000000000000000000000000600052604160045260246000fd5b7f4e487b7100000000000000000000000000000000000000000000000000000000600052602260045260246000fd5b6000600282049050600182168061012157607f821691505b602082108103610134576101336100da565b5b50919050565b60008190508160005260206000209050919050565b60006020601f8301049050919050565b60008160020a8302905092915050565b60006008830261019f7fffffffffffffffffffffffffffffffffffffffffffffffffffffffffffffffff8261015f565b6101a9868361015f565b95508019841693508086168417925050509392505050565b6000819050919050565b6000819050919050565b60006101f06101eb6101e6846101c1565b6101cb565b6101c1565b9050919050565b6000819050919050565b61020a836101d5565b61021e610216826101f7565b84845461016f565b825550505050565b600090565b610233610226565b61023e818484610201565b505050565b5b818110156102625761025760008261022b565b600181019050610244565b5050565b601f8211156102a7576102788161013a565b6102818461014f565b81016020851015610290578190505b6102a461029c8561014f565b830182610243565b50505b505050565b60008160020a8304905092915050565b60006102cd600019846008026102ac565b1980831691505092915050565b60006102e683836102bc565b9150826002028217905092915050565b6102ff826100a0565b67ffffffffffffffff811115610318576103176100ab565b5b6103228254610109565b61032d828285610266565b600060209050601f831160018114610360576000841561034e578287015190505b61035885826102da565b8655506103c0565b601f19841661036e8661013a565b60005b8281101561039657848901518255600182019150602085019450602081019050610371565b868310156103b357848901516103af601f8916826102bc565b8355505b6001600288020188555050505b505050505050565b610301806103d76000396000f3fe608060405234801561001057600080fd5b5060043610610053576000357c01000000000000000000000000000000000000000000000000000000009004806306fdde031461005857806395d89b4114610076575b600080fd5b610060610094565b60405161006d9190610249565b60405180910390f35b61007e610122565b60405161008b9190610249565b60405180910390f35b600080546100a19061029a565b80601f01602080910402602001604051908101604052809291908181526020018280546100cd9061029a565b801561011a5780601f106100ef5761010080835404028352916020019161011a565b820191906000526020600020905b8154815290600101906020018083116100fd57829003601f168201915b505050505081565b6001805461012f9061029a565b80601f016020809104026020016040519081016040528092919081815260200182805461015b9061029a565b80156101a85780601f1061017d576101008083540402835291602001916101a8565b820191906000526020600020905b81548152906001019060200180831161018b57829003601f168201915b505050505081565b600081519050919050565b600082825260208201905092915050565b60005b838110156101ea5780820151818401526020810190506101cf565b838111156101f9576000848401525b50505050565b6000601f19601f8301169050919050565b600061021b826101b0565b61022581856101bb565b93506102358185602086016101cc565b61023e816101ff565b840191505092915050565b600060208201905081810360008301526102638184610210565b905092915050565b7f4e487b7100000000000000000000000000000000000000000000000000000000600052602260045260246000fd5b600060028204905060018216806102b257607f821691505b6020821081036102c5576102c461026b565b5b5091905056fea2646970667358221220b036fde5086759848c13a58192e4aa575180c9b9f3958ac19f16a8220a677b1b64736f6c634300080f0033",
  "immutableReferences": {},
  "source": "// SPDX-License-Identifier: MIT\npragma solidity ^0.8.0;\n\ncontract Nft{\n    string public name;\n    string public symbol;\n\n    constructor(){\n        name='NFT smart cards';\n        symbol='NFTz';\n    }\n}",
  "sourcePath": "/home/aviroxi/workspace/nft/src/contracts/Nft.sol",
  "compiler": {
    "name": "solc",
    "version": "0.8.15+commit.e14f2714.Emscripten.clang"
  },
  "schemaVersion": "3.4.8",
  "updatedAt": "2022-07-18T07:05:24.695Z",
  "networkType": "ethereum",
  "devdoc": {
    "kind": "dev",
    "methods": {},
    "version": 1
  },
  "userdoc": {
    "kind": "user",
    "methods": {},
    "version": 1
  }
}