{
  "contractName": "Nft",
  "abi": [
    {
      "inputs": [],
      "stateMutability": "nonpayable",
      "type": "constructor"
    },
    {
      "anonymous": false,
      "inputs": [
        {
          "indexed": true,
          "internalType": "address",
          "name": "_owner",
          "type": "address"
        },
        {
          "indexed": true,
          "internalType": "address",
          "name": "_approved",
          "type": "address"
        },
        {
          "indexed": true,
          "internalType": "uint256",
          "name": "_tokenId",
          "type": "uint256"
        }
      ],
      "name": "Approval",
      "type": "event"
    },
    {
      "anonymous": false,
      "inputs": [
        {
          "indexed": true,
          "internalType": "address",
          "name": "_from",
          "type": "address"
        },
        {
          "indexed": true,
          "internalType": "address",
          "name": "_to",
          "type": "address"
        },
        {
          "indexed": true,
          "internalType": "uint256",
          "name": "_tokenId",
          "type": "uint256"
        }
      ],
      "name": "Transfer",
      "type": "event"
    },
    {
      "inputs": [
        {
          "internalType": "string",
          "name": "",
          "type": "string"
        }
      ],
      "name": "_nftExists",
      "outputs": [
        {
          "internalType": "bool",
          "name": "",
          "type": "bool"
        }
      ],
      "stateMutability": "view",
      "type": "function",
      "constant": true
    },
    {
      "inputs": [
        {
          "internalType": "uint256",
          "name": "",
          "type": "uint256"
        }
      ],
      "name": "allNfts",
      "outputs": [
        {
          "internalType": "string",
          "name": "",
          "type": "string"
        }
      ],
      "stateMutability": "view",
      "type": "function",
      "constant": true
    },
    {
      "inputs": [
        {
          "internalType": "address",
          "name": "_owner",
          "type": "address"
        }
      ],
      "name": "balanceOf",
      "outputs": [
        {
          "internalType": "uint256",
          "name": "",
          "type": "uint256"
        }
      ],
      "stateMutability": "view",
      "type": "function",
      "constant": true
    },
    {
      "inputs": [],
      "name": "name",
      "outputs": [
        {
          "internalType": "string",
          "name": "",
          "type": "string"
        }
      ],
      "stateMutability": "view",
      "type": "function",
      "constant": true
    },
    {
      "inputs": [
        {
          "internalType": "uint256",
          "name": "_tokenId",
          "type": "uint256"
        }
      ],
      "name": "ownerOf",
      "outputs": [
        {
          "internalType": "address",
          "name": "",
          "type": "address"
        }
      ],
      "stateMutability": "view",
      "type": "function",
      "constant": true
    },
    {
      "inputs": [
        {
          "internalType": "bytes4",
          "name": "interfaceID",
          "type": "bytes4"
        }
      ],
      "name": "supportsInterface",
      "outputs": [
        {
          "internalType": "bool",
          "name": "",
          "type": "bool"
        }
      ],
      "stateMutability": "view",
      "type": "function",
      "constant": true
    },
    {
      "inputs": [],
      "name": "symbol",
      "outputs": [
        {
          "internalType": "string",
          "name": "",
          "type": "string"
        }
      ],
      "stateMutability": "view",
      "type": "function",
      "constant": true
    },
    {
      "inputs": [
        {
          "internalType": "uint256",
          "name": "_index",
          "type": "uint256"
        }
      ],
      "name": "tokenByIndex",
      "outputs": [
        {
          "internalType": "uint256",
          "name": "",
          "type": "uint256"
        }
      ],
      "stateMutability": "view",
      "type": "function",
      "constant": true
    },
    {
      "inputs": [
        {
          "internalType": "address",
          "name": "_owner",
          "type": "address"
        },
        {
          "internalType": "uint256",
          "name": "_index",
          "type": "uint256"
        }
      ],
      "name": "tokenOfOwnerByIndex",
      "outputs": [
        {
          "internalType": "uint256",
          "name": "",
          "type": "uint256"
        }
      ],
      "stateMutability": "view",
      "type": "function",
      "constant": true
    },
    {
      "inputs": [],
      "name": "totalSupply",
      "outputs": [
        {
          "internalType": "uint256",
          "name": "",
          "type": "uint256"
        }
      ],
      "stateMutability": "view",
      "type": "function",
      "constant": true
    },
    {
      "inputs": [
        {
          "internalType": "address",
          "name": "_from",
          "type": "address"
        },
        {
          "internalType": "address",
          "name": "_to",
          "type": "address"
        },
        {
          "internalType": "uint256",
          "name": "_tokenId",
          "type": "uint256"
        }
      ],
      "name": "transferFrom",
      "outputs": [],
      "stateMutability": "nonpayable",
      "type": "function"
    },
    {
      "inputs": [
        {
          "internalType": "string",
          "name": "_nft",
          "type": "string"
        }
      ],
      "name": "mint",
      "outputs": [],
      "stateMutability": "nonpayable",
      "type": "function"
    }
  ],
  "bytecode": "0x60806040523480156200001157600080fd5b506040518060400160405280600f81526020017f4e465420736d61727420636172647300000000000000000000000000000000008152506040518060400160405280600481526020017f4e46547a000000000000000000000000000000000000000000000000000000008152508181620000ba7f01ffc9a7a5cef8baa21ed3c5c0d7e23accb804b619e9333b597f47a0d84076e262000240640100000000026401000000009004565b620001167f13b182f4c0e5b2efbac0efe6cf6d756c8b89f4b79c5707a043ed9ea740574ee97f7feaf19471f34a12a7eaf32d5f3090aa2260ea8624dc8a138e74e0bf0f6230761862000240640100000000026401000000009004565b8160019081620001279190620005b3565b508060029081620001399190620005b3565b505050620001ba7f22c82707ba960a14c7592ffb6b8cfaa073fed0048a84cc7fa41f6b5bd8e7f2e47f3a6eb71757dfc6e784c1459d26270140c2c147d95ca985c80026fc5301c3eca17f8a7e378434598edc36d108689a030cbc9d7d465de4f74c71bae1028eed6a881b181862000240640100000000026401000000009004565b620002387f8230223f691b981717299fae9549350a0d894555723531f02108b1f522c1a7977f6da5e1284143cdd2d15038a59bde3be031250f00291d64494c12d967b3a4e0c37fc53637662700e6c65104059db8bba34439e0c32483ab7c34e3ccae52c7395495181862000240640100000000026401000000009004565b50506200071d565b63ffffffff7c010000000000000000000000000000000000000000000000000000000002817bffffffffffffffffffffffffffffffffffffffffffffffffffffffff191603620002c7576040517f08c379a0000000000000000000000000000000000000000000000000000000008152600401620002be90620006fb565b60405180910390fd5b6001600080837bffffffffffffffffffffffffffffffffffffffffffffffffffffffff19167bffffffffffffffffffffffffffffffffffffffffffffffffffffffff1916815260200190815260200160002060006101000a81548160ff02191690831515021790555050565b600081519050919050565b7f4e487b7100000000000000000000000000000000000000000000000000000000600052604160045260246000fd5b7f4e487b7100000000000000000000000000000000000000000000000000000000600052602260045260246000fd5b60006002820490506001821680620003b557607f821691505b602082108103620003cb57620003ca6200036d565b5b50919050565b60008190508160005260206000209050919050565b60006020601f8301049050919050565b60008160020a8302905092915050565b600060088302620004387fffffffffffffffffffffffffffffffffffffffffffffffffffffffffffffffff82620003f6565b620004448683620003f6565b95508019841693508086168417925050509392505050565b6000819050919050565b6000819050919050565b6000620004916200048b62000485846200045c565b62000466565b6200045c565b9050919050565b6000819050919050565b620004ad8362000470565b620004c5620004bc8262000498565b84845462000406565b825550505050565b600090565b620004dc620004cd565b620004e9818484620004a2565b505050565b5b81811015620005115762000505600082620004d2565b600181019050620004ef565b5050565b601f82111562000560576200052a81620003d1565b6200053584620003e6565b8101602085101562000545578190505b6200055d6200055485620003e6565b830182620004ee565b50505b505050565b60008160020a8304905092915050565b6000620005886000198460080262000565565b1980831691505092915050565b6000620005a3838362000575565b9150826002028217905092915050565b620005be8262000333565b67ffffffffffffffff811115620005da57620005d96200033e565b5b620005e682546200039c565b620005f382828562000515565b600060209050601f8311600181146200062b576000841562000616578287015190505b62000622858262000595565b86555062000692565b601f1984166200063b86620003d1565b60005b8281101562000665578489015182556001820191506020850194506020810190506200063e565b8683101562000685578489015162000681601f89168262000575565b8355505b6001600288020188555050505b505050505050565b600082825260208201905092915050565b7f496e76616c696420496e74657266616365207265717565737400000000000000600082015250565b6000620006e36019836200069a565b9150620006f082620006ab565b602082019050919050565b600060208201905081810360008301526200071681620006d4565b9050919050565b611b97806200072d6000396000f3fe608060405234801561001057600080fd5b50600436106100d1576000357c0100000000000000000000000000000000000000000000000000000000900480634f6ccce71161008e5780634f6ccce7146101be5780636352211e146101ee57806370a082311461021e57806395d89b411461024e578063c529de651461026c578063d85d3d271461029c576100d1565b806301ffc9a7146100d657806306fdde031461010657806318160ddd1461012457806323b872dd146101425780632f745c591461015e57806330219d4b1461018e575b600080fd5b6100f060048036038101906100eb9190610ed9565b6102b8565b6040516100fd9190610f21565b60405180910390f35b61010e61031f565b60405161011b9190610fd5565b60405180910390f35b61012c6103b1565b6040516101399190611010565b60405180910390f35b61015c600480360381019061015791906110b5565b6103be565b005b61017860048036038101906101739190611108565b6103ce565b6040516101859190611010565b60405180910390f35b6101a860048036038101906101a3919061127d565b61047e565b6040516101b59190610f21565b60405180910390f35b6101d860048036038101906101d391906112c6565b6104b4565b6040516101e59190611010565b60405180910390f35b610208600480360381019061020391906112c6565b610525565b6040516102159190611302565b60405180910390f35b6102386004803603810190610233919061131d565b6105d6565b6040516102459190611010565b60405180910390f35b61025661068d565b6040516102639190610fd5565b60405180910390f35b610286600480360381019061028191906112c6565b61071f565b6040516102939190610fd5565b60405180910390f35b6102b660048036038101906102b1919061127d565b6107cb565b005b6000806000837bffffffffffffffffffffffffffffffffffffffffffffffffffffffff19167bffffffffffffffffffffffffffffffffffffffffffffffffffffffff1916815260200190815260200160002060009054906101000a900460ff169050919050565b60606001805461032e90611379565b80601f016020809104026020016040519081016040528092919081815260200182805461035a90611379565b80156103a75780601f1061037c576101008083540402835291602001916103a7565b820191906000526020600020905b81548152906001019060200180831161038a57829003601f168201915b5050505050905090565b6000600580549050905090565b6103c98383836108c7565b505050565b60006103d9836105d6565b821061041a576040517f08c379a0000000000000000000000000000000000000000000000000000000008152600401610411906113f6565b60405180910390fd5b600760008473ffffffffffffffffffffffffffffffffffffffff1673ffffffffffffffffffffffffffffffffffffffff168152602001908152602001600020828154811061046b5761046a611416565b5b9060005260206000200154905092915050565b600a818051602081018201805184825260208301602085012081835280955050505050506000915054906101000a900460ff1681565b60006104be6103b1565b82106104ff576040517f08c379a00000000000000000000000000000000000000000000000000000000081526004016104f690611491565b60405180910390fd5b6005828154811061051357610512611416565b5b90600052602060002001549050919050565b6000806003600084815260200190815260200160002060009054906101000a900473ffffffffffffffffffffffffffffffffffffffff169050600073ffffffffffffffffffffffffffffffffffffffff168173ffffffffffffffffffffffffffffffffffffffff16036105cd576040517f08c379a00000000000000000000000000000000000000000000000000000000081526004016105c490611523565b60405180910390fd5b80915050919050565b60008073ffffffffffffffffffffffffffffffffffffffff168273ffffffffffffffffffffffffffffffffffffffff1603610646576040517f08c379a000000000000000000000000000000000000000000000000000000000815260040161063d90611523565b60405180910390fd5b600460008373ffffffffffffffffffffffffffffffffffffffff1673ffffffffffffffffffffffffffffffffffffffff168152602001908152602001600020549050919050565b60606002805461069c90611379565b80601f01602080910402602001604051908101604052809291908181526020018280546106c890611379565b80156107155780601f106106ea57610100808354040283529160200191610715565b820191906000526020600020905b8154815290600101906020018083116106f857829003601f168201915b5050505050905090565b6009818154811061072f57600080fd5b90600052602060002001600091509050805461074a90611379565b80601f016020809104026020016040519081016040528092919081815260200182805461077690611379565b80156107c35780601f10610798576101008083540402835291602001916107c3565b820191906000526020600020905b8154815290600101906020018083116107a657829003601f168201915b505050505081565b600a816040516107db919061157f565b908152602001604051809103902060009054906101000a900460ff1615610837576040517f08c379a000000000000000000000000000000000000000000000000000000000815260040161082e906115e2565b60405180910390fd5b60098190806001815401808255809150506001900390600052602060002001600090919091909150908161086b91906117b4565b506000600160098054905061088091906118b5565b905061088c3382610b0c565b6001600a8360405161089e919061157f565b908152602001604051809103902060006101000a81548160ff0219169083151502179055505050565b600073ffffffffffffffffffffffffffffffffffffffff168273ffffffffffffffffffffffffffffffffffffffff1603610936576040517f08c379a000000000000000000000000000000000000000000000000000000000815260040161092d9061195b565b60405180910390fd5b8273ffffffffffffffffffffffffffffffffffffffff1661095682610525565b73ffffffffffffffffffffffffffffffffffffffff16146109ac576040517f08c379a00000000000000000000000000000000000000000000000000000000081526004016109a3906119ed565b60405180910390fd5b6001600460008573ffffffffffffffffffffffffffffffffffffffff1673ffffffffffffffffffffffffffffffffffffffff16815260200190815260200160002060008282546109fc91906118b5565b925050819055506001600460008473ffffffffffffffffffffffffffffffffffffffff1673ffffffffffffffffffffffffffffffffffffffff1681526020019081526020016000206000828254610a539190611a0d565b92505081905550816003600083815260200190815260200160002060006101000a81548173ffffffffffffffffffffffffffffffffffffffff021916908373ffffffffffffffffffffffffffffffffffffffff160217905550808273ffffffffffffffffffffffffffffffffffffffff168473ffffffffffffffffffffffffffffffffffffffff167fddf252ad1be2c89b69c2b068fc378daa952ba7f163c4a11628f55a4df523b3ef60405160405180910390a4505050565b610b168282610b2d565b610b208282610cee565b610b2981610db2565b5050565b600073ffffffffffffffffffffffffffffffffffffffff168273ffffffffffffffffffffffffffffffffffffffff1603610b9c576040517f08c379a0000000000000000000000000000000000000000000000000000000008152600401610b9390611ad5565b60405180910390fd5b610ba581610dfb565b15610be5576040517f08c379a0000000000000000000000000000000000000000000000000000000008152600401610bdc90611b41565b60405180910390fd5b816003600083815260200190815260200160002060006101000a81548173ffffffffffffffffffffffffffffffffffffffff021916908373ffffffffffffffffffffffffffffffffffffffff1602179055506001600460008473ffffffffffffffffffffffffffffffffffffffff1673ffffffffffffffffffffffffffffffffffffffff1681526020019081526020016000206000828254610c879190611a0d565b92505081905550808273ffffffffffffffffffffffffffffffffffffffff16600073ffffffffffffffffffffffffffffffffffffffff167fddf252ad1be2c89b69c2b068fc378daa952ba7f163c4a11628f55a4df523b3ef60405160405180910390a45050565b600760008373ffffffffffffffffffffffffffffffffffffffff1673ffffffffffffffffffffffffffffffffffffffff168152602001908152602001600020819080600181540180825580915050600190039060005260206000200160009091909190915055600760008373ffffffffffffffffffffffffffffffffffffffff1673ffffffffffffffffffffffffffffffffffffffff1681526020019081526020016000208054905060086000838152602001908152602001600020819055505050565b6005805490506006600083815260200190815260200160002081905550600581908060018154018082558091505060019003906000526020600020016000909190919091505550565b6000806003600084815260200190815260200160002060009054906101000a900473ffffffffffffffffffffffffffffffffffffffff169050600073ffffffffffffffffffffffffffffffffffffffff168173ffffffffffffffffffffffffffffffffffffffff161415915050919050565b6000604051905090565b600080fd5b600080fd5b60007fffffffff0000000000000000000000000000000000000000000000000000000082169050919050565b610eb681610e81565b8114610ec157600080fd5b50565b600081359050610ed381610ead565b92915050565b600060208284031215610eef57610eee610e77565b5b6000610efd84828501610ec4565b91505092915050565b60008115159050919050565b610f1b81610f06565b82525050565b6000602082019050610f366000830184610f12565b92915050565b600081519050919050565b600082825260208201905092915050565b60005b83811015610f76578082015181840152602081019050610f5b565b83811115610f85576000848401525b50505050565b6000601f19601f8301169050919050565b6000610fa782610f3c565b610fb18185610f47565b9350610fc1818560208601610f58565b610fca81610f8b565b840191505092915050565b60006020820190508181036000830152610fef8184610f9c565b905092915050565b6000819050919050565b61100a81610ff7565b82525050565b60006020820190506110256000830184611001565b92915050565b600073ffffffffffffffffffffffffffffffffffffffff82169050919050565b60006110568261102b565b9050919050565b6110668161104b565b811461107157600080fd5b50565b6000813590506110838161105d565b92915050565b61109281610ff7565b811461109d57600080fd5b50565b6000813590506110af81611089565b92915050565b6000806000606084860312156110ce576110cd610e77565b5b60006110dc86828701611074565b93505060206110ed86828701611074565b92505060406110fe868287016110a0565b9150509250925092565b6000806040838503121561111f5761111e610e77565b5b600061112d85828601611074565b925050602061113e858286016110a0565b9150509250929050565b600080fd5b600080fd5b7f4e487b7100000000000000000000000000000000000000000000000000000000600052604160045260246000fd5b61118a82610f8b565b810181811067ffffffffffffffff821117156111a9576111a8611152565b5b80604052505050565b60006111bc610e6d565b90506111c88282611181565b919050565b600067ffffffffffffffff8211156111e8576111e7611152565b5b6111f182610f8b565b9050602081019050919050565b82818337600083830152505050565b600061122061121b846111cd565b6111b2565b90508281526020810184848401111561123c5761123b61114d565b5b6112478482856111fe565b509392505050565b600082601f83011261126457611263611148565b5b813561127484826020860161120d565b91505092915050565b60006020828403121561129357611292610e77565b5b600082013567ffffffffffffffff8111156112b1576112b0610e7c565b5b6112bd8482850161124f565b91505092915050565b6000602082840312156112dc576112db610e77565b5b60006112ea848285016110a0565b91505092915050565b6112fc8161104b565b82525050565b600060208201905061131760008301846112f3565b92915050565b60006020828403121561133357611332610e77565b5b600061134184828501611074565b91505092915050565b7f4e487b7100000000000000000000000000000000000000000000000000000000600052602260045260246000fd5b6000600282049050600182168061139157607f821691505b6020821081036113a4576113a361134a565b5b50919050565b7f6f776e6572206c69737420696e646578206973206f7574206f6620626f756e64600082015250565b60006113e0602083610f47565b91506113eb826113aa565b602082019050919050565b6000602082019050818103600083015261140f816113d3565b9050919050565b7f4e487b7100000000000000000000000000000000000000000000000000000000600052603260045260246000fd5b7f676c6f62616c20696e646578206973206f7574206f6620626f756e6400000000600082015250565b600061147b601c83610f47565b915061148682611445565b602082019050919050565b600060208201905081810360008301526114aa8161146e565b9050919050565b7f6f776e657220717565727920666f72206e6f6e2d6578697374656e7420746f6b60008201527f656e000000000000000000000000000000000000000000000000000000000000602082015250565b600061150d602283610f47565b9150611518826114b1565b604082019050919050565b6000602082019050818103600083015261153c81611500565b9050919050565b600081905092915050565b600061155982610f3c565b6115638185611543565b9350611573818560208601610f58565b80840191505092915050565b600061158b828461154e565b915081905092915050565b7f4572726f72203a204e667420616c726561647920657869737473000000000000600082015250565b60006115cc601a83610f47565b91506115d782611596565b602082019050919050565b600060208201905081810360008301526115fb816115bf565b9050919050565b60008190508160005260206000209050919050565b60006020601f8301049050919050565b60008160020a8302905092915050565b6000600883026116677fffffffffffffffffffffffffffffffffffffffffffffffffffffffffffffffff82611627565b6116718683611627565b95508019841693508086168417925050509392505050565b6000819050919050565b60006116ae6116a96116a484610ff7565b611689565b610ff7565b9050919050565b6000819050919050565b6116c883611693565b6116dc6116d4826116b5565b848454611637565b825550505050565b600090565b6116f16116e4565b6116fc8184846116bf565b505050565b5b81811015611720576117156000826116e9565b600181019050611702565b5050565b601f8211156117655761173681611602565b61173f84611617565b8101602085101561174e578190505b61176261175a85611617565b830182611701565b50505b505050565b60008160020a8304905092915050565b600061178b6000198460080261176a565b1980831691505092915050565b60006117a4838361177a565b9150826002028217905092915050565b6117bd82610f3c565b67ffffffffffffffff8111156117d6576117d5611152565b5b6117e08254611379565b6117eb828285611724565b600060209050601f83116001811461181e576000841561180c578287015190505b6118168582611798565b86555061187e565b601f19841661182c86611602565b60005b828110156118545784890151825560018201915060208501945060208101905061182f565b86831015611871578489015161186d601f89168261177a565b8355505b6001600288020188555050505b505050505050565b7f4e487b7100000000000000000000000000000000000000000000000000000000600052601160045260246000fd5b60006118c082610ff7565b91506118cb83610ff7565b9250828210156118de576118dd611886565b5b828203905092915050565b7f4572726f72203a20455243373231205472616e7366657220746f207a65726f2060008201527f6164647265737300000000000000000000000000000000000000000000000000602082015250565b6000611945602783610f47565b9150611950826118e9565b604082019050919050565b6000602082019050818103600083015261197481611938565b9050919050565b7f747279696e6720746f207472616e73666572206120746f6b656e20746865206160008201527f64647265737320646f6573206e6f742065786973740000000000000000000000602082015250565b60006119d7603583610f47565b91506119e28261197b565b604082019050919050565b60006020820190508181036000830152611a06816119ca565b9050919050565b6000611a1882610ff7565b9150611a2383610ff7565b9250827fffffffffffffffffffffffffffffffffffffffffffffffffffffffffffffffff03821115611a5857611a57611886565b5b828201905092915050565b7f4552433732313a204d696e74696e6720746f20746865207a65726f206164647260008201527f6573730000000000000000000000000000000000000000000000000000000000602082015250565b6000611abf602383610f47565b9150611aca82611a63565b604082019050919050565b60006020820190508181036000830152611aee81611ab2565b9050919050565b7f4552433732313a20546f6b656e20616c7265616479206d696e74656421000000600082015250565b6000611b2b601d83610f47565b9150611b3682611af5565b602082019050919050565b60006020820190508181036000830152611b5a81611b1e565b905091905056fea2646970667358221220af3ba89b0ff8feffb3c5449ca40a04f21026c5d47da4940cc292f7d38541954464736f6c634300080f0033",
  "immutableReferences": {},
  "source": "// SPDX-License-Identifier: MIT\npragma solidity ^0.8.0;\n\nimport './ERC721Connector.sol';\n\ncontract Nft is ERC721Connector{\n\n    //array to store our Nfts\n    string[] public allNfts;\n\n    mapping(string => bool) public _nftExists;\n\n    function mint(string memory _nft) public {\n        require(!_nftExists[_nft],'Error : Nft already exists');\n        //.push is deprecated for compilers version above 0.6.0\n        //.push no longer returns length but reference to the added element\n        //uint256 _id = allNfts.push(_nft);\n        allNfts.push(_nft);\n        uint256 _id = allNfts.length-1;\n        _mint(msg.sender,_id);\n        _nftExists[_nft]=true;\n    }\n\n\n    constructor() ERC721Connector('NFT smart cards','NFTz'){}\n}",
  "sourcePath": "/home/aviroxi/workspace/nft/src/contracts/Nft.sol",
  "compiler": {
    "name": "solc",
    "version": "0.8.15+commit.e14f2714.Emscripten.clang"
  },
  "schemaVersion": "3.4.8",
  "updatedAt": "2022-07-20T09:25:44.279Z",
  "networkType": "ethereum",
  "devdoc": {
    "kind": "dev",
    "methods": {
      "balanceOf(address)": {
        "details": "NFTs assigned to the zero address are considered invalid, and this  function throws for queries about the zero address.",
        "params": {
          "_owner": "An address for whom to query the balance"
        },
        "returns": {
          "_0": "The number of NFTs owned by `_owner`, possibly zero"
        }
      },
      "ownerOf(uint256)": {
        "details": "NFTs assigned to zero address are considered invalid, and queries  about them do throw.",
        "params": {
          "_tokenId": "The identifier for an NFT"
        },
        "returns": {
          "_0": "The address of the owner of the NFT"
        }
      },
      "supportsInterface(bytes4)": {
        "details": "Interface identification is specified in ERC-165. This function  uses less than 30,000 gas.",
        "params": {
          "interfaceID": "The interface identifier, as specified in ERC-165"
        },
        "returns": {
          "_0": "`true` if the contract implements `interfaceID` and  `interfaceID` is not 0xffffffff, `false` otherwise"
        }
      },
      "tokenByIndex(uint256)": {
        "details": "Throws if `_index` >= `totalSupply()`.",
        "params": {
          "_index": "A counter less than `totalSupply()`"
        },
        "returns": {
          "_0": "The token identifier for the `_index`th NFT,  (sort order not specified)"
        }
      },
      "tokenOfOwnerByIndex(address,uint256)": {
        "details": "Throws if `_index` >= `balanceOf(_owner)` or if  `_owner` is the zero address, representing invalid NFTs.",
        "params": {
          "_index": "A counter less than `balanceOf(_owner)`",
          "_owner": "An address where we are interested in NFTs owned by them"
        },
        "returns": {
          "_0": "The token identifier for the `_index`th NFT assigned to `_owner`,   (sort order not specified)"
        }
      },
      "totalSupply()": {
        "returns": {
          "_0": "A count of valid NFTs tracked by this contract, where each one of  them has an assigned and queryable owner not equal to the zero address"
        }
      },
      "transferFrom(address,address,uint256)": {
        "details": "Throws unless `msg.sender` is the current owner, an authorized  operator, or the approved address for this NFT. Throws if `_from` is  not the current owner. Throws if `_to` is the zero address. Throws if  `_tokenId` is not a valid NFT.",
        "params": {
          "_from": "The current owner of the NFT",
          "_to": "The new owner",
          "_tokenId": "The NFT to transfer"
        }
      }
    },
    "version": 1
  },
  "userdoc": {
    "kind": "user",
    "methods": {
      "balanceOf(address)": {
        "notice": "Count all NFTs assigned to an owner"
      },
      "name()": {
        "notice": "A descriptive name for a collection of NFTs in this contract"
      },
      "ownerOf(uint256)": {
        "notice": "Find the owner of an NFT"
      },
      "supportsInterface(bytes4)": {
        "notice": "Query if a contract implements an interface"
      },
      "symbol()": {
        "notice": "An abbreviated name for NFTs in this contract"
      },
      "tokenByIndex(uint256)": {
        "notice": "Enumerate valid NFTs"
      },
      "tokenOfOwnerByIndex(address,uint256)": {
        "notice": "Enumerate NFTs assigned to an owner"
      },
      "totalSupply()": {
        "notice": "Count NFTs tracked by this contract"
      },
      "transferFrom(address,address,uint256)": {
        "notice": "Transfer ownership of an NFT -- THE CALLER IS RESPONSIBLE  TO CONFIRM THAT `_to` IS CAPABLE OF RECEIVING NFTS OR ELSE  THEY MAY BE PERMANENTLY LOST"
      }
    },
    "version": 1
  }
}